:020000040800F2
:10000000C82F002045010008F13F0008F93800081A
:10001000ED3F0008090F00081D6100080000000006
:10002000000000000000000000000000F93F000890
:10003000A10F000800000000F53F0008FD3F000888
:100040005F0100085F0100085F0100085F01000810
:100050005F0100085F010008A50F00085F010008AC
:100060005F010008AD0F0008B50F00085F01000830
:100070005F0100085F0100085F0100085F010008E0
:10008000950F00085F0100085F0100085F0100088C
:10009000A55F00085F0100085F0100085F0100081C
:1000A0005F0100085F0100085F0100085F010008B0
:1000B0005F0100085F0100085F0100085F010008A0
:1000C0005F0100085F0100085F0100085F01000890
:1000D0005F0100085F010008914100085F0100080E
:1000E0005F0100085F0100085F0100085F01000870
:1000F0005F0100085F0100085F0100085F01000860
:100100005F0100085F0100085F0100085F0100084F
:100110005F0100085F0100085F0100085F0100083F
:100120005F0100085F0100085F0100085F0100082F
:10013000DFF80CD000F04EFC0048004721610008B9
:10014000C82F00200648804706480047FEE7FEE724
:10015000FEE7FEE7FEE7FEE7FEE7FEE7FEE7FEE777
:10016000014000083101000830B505462A460B461B
:1001700012F8010B13F8014B08B1A042F8D01CB1E2
:10018000002802D06D1CF1E7284630BD10B50446AA
:1001900004E00B7800F8013B03B1491C521EF8D271
:1001A000204610BD70B50F4D00B92868002412E03C
:1001B0000A4602E09E4203D0521C1378002BF9D16C
:1001C000DAB2224305D02BB124B1002100F8011B83
:1001D00004E00446401C0678002EE9D12860204641
:1001E00070BD00000000002070B5064606F0DCFA85
:1001F000046805460A220021304600F0EFFA2C6020
:1002000070BDF0B480EA0102D40F4200B2EB410F9E
:1002100002D20246084611464A0042D0C30DDDB262
:10022000C1F3C752AD1A202D35DAC1F3160141F4DE
:10023000000204B15242C5F1200602FA06F12A4139
:100240001044B3EBD05F23D0C4B1012DA0EBC35059
:1002500009DCF0BC4FF0004202EAC352DBB200F509
:10026000000000F0FCBA400000F1807000EBC350C9
:10027000A0F1807040EAD170490009E0490841EAE4
:10028000C071A0EBC35000F50000400800EBC35064
:10029000F0BC00F0DBBA6142012202EB4101001B1D
:1002A000F6E7F0BC704781F00041AAE780F000401B
:1002B000A7E72DE9FE4F804681EA0300C00F0C46F8
:1002C000009021F0004123F00045B8EB0200A94165
:1002D00005D24046214690461C460B46024623F076
:1002E0000040104347D0270DC7F30A00C3F30A515B
:1002F0000290401A019040286BDAC3F3130040F4D7
:10030000801B0098924620B10023D2EB030A63EBD6
:100310000B0B01985946C0F14002504600F0E9F934
:1003200006460D4650465946019A00F0F1F910EB89
:1003300008006141002487EA115284EAE7731A43F6
:1003400040D0009A62B3019A012A4FEA075215DCA5
:10035000001B61EB02014FF0004202EA0752CDE9B7
:100360000042001C41F5801132462B4600F0B4FAE1
:1003700003B0BDE8F08F40462146F9E7001B61EB72
:100380000201001C41F5801300185B412018A2F502
:10039000001747EB030140EAD570B6196D4111E033
:1003A0006D084FEA360645EAC0754FEA0752001B52
:1003B00061EB0201001C41F5801149084FEA300051
:1003C0000019514132462B4603B0BDE8F04F00F012
:1003D00074BA0098012240000023D0EB020263EBC4
:1003E000E073009821464FEAE074B8EB000061EB3F
:1003F0000401E9E783F000435BE781F0004158E73F
:100400002DE9FE4F81EA030404F0004421F000418D
:1004100000944FF0000B23F0004350EA01045ED03B
:1004200052EA03045BD0C3F30A54C1F30A552C44C7
:10043000A4F2F3340194A0FB0254C1F3130141F47C
:100440008011C3F3130343F4801301FB024400FB48
:10045000034E840A970A44EA815447EA8357A4FB6F
:10046000076802958D0A05FB07854FEA932C04FB6C
:100470000C542705029D4FEA065847EA1637B5EB9C
:1004800008056EEB070C870E920E47EA811742EAC9
:100490008312A7FB0201B6EB0B0164EB00042B0DEA
:1004A00043EA0C335E1844EB1C50DA465146E7FB36
:1004B0000201C5F313044FEA0B3343EA14534FEA26
:1004C0000432019C43EA0603A4F10C040294009C4C
:1004D000CDE900B400F000FA03B0BDE8F08F0020D1
:1004E0000146F9E72DE9F04D81EA030404F0004BE1
:1004F00021F0004514464FF0000A23F0004150EA75
:10050000050220D054EA01021DD0C5F30A57024665
:10051000C5F31303C1F31300C1F30A5640F4801569
:1005200043F48013A7EB0608101BD64608F2FD38EB
:1005300073EB050002D308F1010801E092185B415A
:10054000B8F1000F03DA00200146BDE8F08D00206D
:100550004FF48011064684460EE0171B73EB050727
:1005600005D3121B63EB050306434CEA010C490853
:100570004FEA300092185B4150EA0107EDD152EA90
:10058000030012D082EA040083EA0501084305D083
:10059000101BAB4106D20122002306E000224FF0DF
:1005A000004302E06FF0010253101AEB06004CEB1F
:1005B000085110EB0A0041EB0B01BDE8F04D00F0D3
:1005C0007CB9C10F80EAE0700844CA079623002175
:1005D00000F045B900F0004220F00040C10DC0F32A
:1005E000160040F400007F2901DA002070479629A8
:1005F00003DCC1F19601C84001E096398840002A29
:10060000F4D04042704700F0004230F000400AD081
:10061000C10D01F56071C0F3160042EA0151C20834
:1006200040071143704700200146704701F0004326
:1006300030B421F0004150EA010206D00A0DA2F5C3
:100640006072C1F31301002A02DC30BC0020704745
:10065000440F44EAC104C100E01830BC00EBC250B2
:1006600000F0F4B830B50B460146002020220124EA
:1006700009E021FA02F59D4205D303FA02F5491B70
:1006800004FA02F52844151EA2F10102F1DC30BD86
:100690002DE9F05F0546002092469B4688460646B7
:1006A000814640241BE0284641464746224600F04A
:1006B000A9F953465A46C01A914110D3114618461B
:1006C000224600F016F82D1A67EB01084F46224625
:1006D0000120002100F00DF817EB00094E41201E0B
:1006E000A4F10104DFDC484631462A464346BDE812
:1006F000F09F202A04DB203A00FA02F10020704724
:100700009140C2F1200320FA03F31943904070474F
:10071000202A06DBCB17203A41FA02F043EAE073C5
:1007200006E041FA02F3D040C2F1200291400843B2
:10073000194670470FB40B0010B58AB00FA900918D
:100740000E994FF00004234ACC60214CCDE90642BB
:1007500000D004236FF00042CDE901321E4A089216
:1007600002466B46002000F0FFF90AB010BC5DF8AD
:1007700014FBF0B585B007464FF0FF300091CDE98E
:1007800001011E46002015460C4604903B466A4671
:10079000314604A8FFF7CEFF04990346601825B13F
:1007A00009B1024600E022462A6000290ED0002B43
:1007B00002DD0099814209D00094001BCDE90104BB
:1007C0003B466A46314604A8FFF7B4FF05B0F0BDCA
:1007D000A10D0008BF0D00082D0A00082DE9F04703
:1007E00091460F4680460446002614F8015B2DB161
:1007F00000F018F90068405DC007F6D12B2D02D03B
:100800002D2D18D0641E4A463946204600F0E8FADD
:1008100027B13968A14201D1C7F8008071054FF0B6
:1008200002040BD54042002803DD05F0BDFF046043
:10083000A007BDE8F08746F48066E4E70028F8DA10
:1008400005F0B2FF04606FF00040F2E70029A8BF96
:100850007047401C490008BF20F00100704710B4E9
:10086000B0FA80FC00FA0CF050EA010404BF10BC9E
:10087000704749B1CCF1200421FA04F411FA0CF1CB
:1008800018BF012121430843A3EB0C01CB1D4FEA04
:1008900000614FEA102042BF002010BC704700EBFF
:1008A000C35010440029A4BF10BC7047401C49002D
:1008B00008BF20F0010010BC704710B5141E73F182
:1008C000000408DA401C41F1000192185B411A4310
:1008D00001D120F0010010BD2DE9F04D92469B465C
:1008E00011B1B1FA81F202E0B0FA80F22032904602
:1008F000FFF7FFFE04460F4640EA0A0041EA0B01FB
:1009000053465A46084313D0114653EA010019D002
:10091000C8F14002504600F075F805460E465046B4
:1009200059464246FFF7E5FE084305D0012004E0A2
:1009300020463946BDE8F08D0020054346EAE076C2
:100940002C4337430A986305E40AA0EB0800002211
:10095000FD0A44EA47540A3002D500200146E9E77F
:10096000010510196941DDE9084500196941BDE833
:10097000F04DA2E7C1F30A52C1F3130140F2FF3375
:1009800041F480119A4202DA00200146704740F299
:1009900033439A42A2F2334202DC524200F032B8B0
:1009A000FFF7A7BE30B5041E71F1000404DB4FF061
:1009B0000044404264EB0101141E73F1000405DBA6
:1009C0001C464FF00043524263EB0403994208BFB8
:1009D000904230BD1CB50948009009480190054679
:1009E000009C06E0E06840F0010394E807009847A7
:1009F0001034AC42F6D3FFF79FFB0000B47100083F
:100A0000D4710008202A04DB203A21FA02F00021E8
:100A1000704721FA02F3D040C2F12002914008430E
:100A200019467047004870477071000810B50446B9
:100A3000FFF7F8FF0068005D00F0010010BD000046
:100A40002DE9FF4F087883B09946FF2805D0491C4F
:100A50002D2804D00024002008E000200BE0012411
:100A6000F9E700EB800003EB4000491C0B78FF2BFB
:100A7000F7D104B1404200230293147819461D4671
:100A80002D2C01D02B2C04D1521C2D2C13D0002442
:100A90000294AA461478FF2C0FD00A25A3FB0578F0
:100AA00001FB05814FF0000C03FB0C11521CE319F4
:100AB0004AEB0101EEE70124EAE7814453EA010031
:100AC00002D019F5C87F06DA03980021C0E90011A9
:100AD00007B0BDE8F08F0025AE4E2F46DFF8B88294
:100AE000184600F0DAF9CDE90001B9F1000002DAA8
:100AF000C9F1000400E004460023A74A1AEB030BE7
:100B000042EB045A12E0E00707D02A463346384643
:100B10004146FFF775FC074688462A46334610468D
:100B20001946FFF76DFC05460E466410002CEAD10D
:100B3000DDE90001B9F1000F5A46534606DAFFF726
:100B4000D1FC3A464346FFF7CDFC05E0FFF758FCE1
:100B50003A464346FFF754FC029A0AB181F000413D
:100B6000039AC2E90001B3E72DE9FF4F1F468DB09C
:100B7000D7E901464FF0FF382E2045464FF00009D7
:100B80000B90B9696D1C0E988847396A8246884770
:100B90000028F6D1BAF1FF3F0AD024F4D064002E29
:100BA00011DDBAF12B0F08D0BAF12D0F0BD102E0F5
:100BB000404611B08DE744F48064B9696D1C0E980D
:100BC00088478246761E6946600501D52D2000E0E3
:100BD0002B208DF8000001F1010B0DF1200809E038
:100BE000B9696D1C0E98884782460F9844F40074CA
:100BF000761E0560002E02DDBAF1300FF0D00B99A1
:100C00008A453ED144F0800406E00F99681CA9F1A2
:100C1000010944F400740860B9696D1C761E0E98D1
:100C2000884782463028F0D02BE00B998A4505D1C1
:100C3000200603D444F08004761E18E0504605F0E8
:100C400095FE08B30DF11302761EAAF1300044F4AC
:100C50000074934506D20BF8010B200607D5A9F1C5
:100C6000010003E0200602D409F101008146A0053D
:100C700002D50F99681C0860B9696D1C0E988847E9
:100C80008246002ED1DC53E0002E51DDBAF1650F13
:100C900002D0BAF1450F4BD1A00549D5B9696D1CF9
:100CA00024F44074761E0E9888478246002E0CDD90
:100CB0002B2804D0BAF12D0F07D144F48074B96900
:100CC0006D1C0E9888478246761EE00501D52D21C1
:100CD00000E02B2108F8011BCDF82C8021E00DF15C
:100CE0002901761E44F4007488450CD2AAF1300024
:100CF00010F0FF0088F8000002D10B99884509D94F
:100D000008F1010806E0E00501D5244801E042F2BF
:100D10000F708146B9696D1C0E98884782460F98FE
:100D20000560002E04DD504605F020FE0028D6D1D7
:100D3000F9690E988847FF208BF8000088F80000BA
:100D40000020069007904B466A4608A906A8FFF7C0
:100D500077FEA00502D46FF001002AE714F0240FFB
:100D60000AD0E00714D1DDE906123868031D3B60A4
:100D70000068C0E900120BE0DDE90601FFF756FC50
:100D80000146E00704D13868021D3A60006801603E
:100D900028460EE7000014400000F03FF1D8FFFFA6
:100DA000426842B1016811F8013B23B1521EC0E90B
:100DB0000012184670470121C160881E70474268C2
:100DC0005AB1C368016843B983688B4205D0491E94
:100DD000521CC0E90012002070474FF0FF307047EE
:100DE0002DE9F05F82460078002715468B460AF110
:100DF0000104B946302801D09DB113E014F8010B6D
:100E00000127782803D0582801D045B10AE00DB158
:100E1000102D07D10027102514F8010B02E008253A
:100E200000E00A250026B0460EE005FB080005FBA1
:100E300006F1012701EB10461FFA80F8B6F5803F56
:100E400000D3B94614F8010B294600F018F8002821
:100E5000EBDABBF1000F05D00FB1641E00E0544681
:100E6000CBF80040B9F1000F06D005F09DFC02213F
:100E70000160C81EBDE8F09F48EA0640FAE73A283C
:100E800000D2303820F02002412A01D3A2F13700ED
:100E9000884201D34FF0FF3070470EB540F2334225
:100EA00002920022CDE900221346FFF715FD03B0A0
:100EB00000BD70B58C1810F8015B15F0070301D167
:100EC00010F8013B2A1106D110F8012B03E010F8AD
:100ED000016B01F8016B5B1EF9D12B0705D40023D0
:100EE000521E0DD401F8013BFAE710F8013BCB1A72
:100EF000921C03E013F8015B01F8015B521EF9D567
:100F0000A142D8D3002070BDFEE70000002070474A
:100F10000020704710B542F2E404C2F2000440F62B
:100F20001821C2F200012046002203F05FFA40F2CD
:100F30003061C2F20001204603F052FA002010BDD9
:100F400010B542F2E404C2F200040146204603F068
:100F500047FA204603F026FA002010BD42F2E402D0
:100F6000C2F20002D2F8B822D2F81432002B1CBF11
:100F70000120704710B542F2E404C2F200040A46B0
:100F80000146204603F032FA2046BDE8104003F047
:100F900099BA000042F2A830C2F2000000F0CAB8CC
:100FA00070470000012000F0CFBA0000082000F0D8
:100FB000CBBA0000102000F0C7BA00007047000054
:100FC000014690F82100022816D10868D1E90FC324
:100FD000026822F00E020260026822F00102026042
:100FE000012000FA03F2CCF8042081F8210000204F
:100FF000002281F82020704704208863012000220D
:1010000081F820207047000090F82110022927D194
:10101000026840F2040C1368C4F2020C23F00E03C1
:10102000136013680CF17C018A4223F00101116006
:101030001AD940F20841C4F202018A4250D040F26B
:101040001C41C4F202018A4242D040F23041C4F253
:1010500002018A4248D14FF48073CCF800345CE03E
:1010600004218163012070474321C4F202018A42B6
:101070000EDD6B21C4F202018A421BDC4421C4F262
:1010800002018A423ED05821C4F202018A4223E082
:101090000821C4F202018A4232D01C21C4F20201AA
:1010A0008A4237D03021C4F202018A4214D14FF46F
:1010B000807230E06C21C4F202018A4226D0802185
:1010C000C4F202018A4207D14FF0807223E000BFD0
:1010D0001023CCF8003420E04FF480321BE000BF36
:1010E0000123CCF8003418E00CF588614FF480330C
:1010F0008A4208BF4FF48053CCF800340DE000BFA3
:10110000012208E04FF4805205E000BF4FF4801246
:1011100001E000BF1022CCF80020416B4FF4807238
:101120000029028404BF0020704780B58847002052
:1011300080BD000010B5D0E90FE3D0F800C0DEF8A4
:101140000020DCF80010DA4054072DD511F004041B
:101150002AD0DCF80010890605D4DCF8001021F054
:101160000401CCF800100422C4F2020202F17C0156
:101170008C4569D940F20841C4F202018C4500F067
:10118000B78040F21C41C4F202018C4500F0A880F7
:1011900040F23041C4F202018C4540F0AD804FF482
:1011A0008061C2F80014F7E0940731D511F0020411
:1011B0002ED0DCF80010890608D4DCF8001021F0ED
:1011C0000A01CCF80010012180F821100422C4F299
:1011D000020202F17C018C454CD940F20841C4F274
:1011E00002018C4500F0BE8040F21C41C4F20201B5
:1011F0008C4500F0AD8040F23041C4F202018C45D4
:1012000040F0BC804FF40071C2F80014D6E000BF7B
:10121000120740F1D98011F0080108BF10BDDCF8B9
:10122000001021F00E01CCF80010012101FA03F2A8
:10123000CEF804208163016B4FF480720029028490
:1012400040F0AC80C0E000BF4321C4F202018C45F5
:1012500026DD6B21C4F202018C4533DC4421C4F24B
:1012600002018C4500F082805821C4F202018C45B5
:101270003AE000BF4321C4F202018C4548DD6B21F6
:10128000C4F202018C4555DC4421C4F202018C45B4
:1012900000F08A805821C4F202018C455EE000BF54
:1012A0000821C4F202018C4556D01C21C4F202016F
:1012B0008C456FD03021C4F202018C4514D14FF41B
:1012C000806168E06C21C4F202018C4552D080211B
:1012D000C4F202018C4507D14FF080615BE000BF92
:1012E0004021C2F8001457E04FF4802153E000BFC2
:1012F0000421C2F800144FE002F588634FF4802106
:101300009C4508BF4FF48041C2F8001444E000BF80
:101310000821C4F202018C4544D01C21C4F2020110
:101320008C4549D03021C4F202018C4516D14FF4CE
:10133000007142E06C21C4F202018C4538D080215A
:10134000C4F202018C4509D14FF0007135E000BFB5
:101350002021C2F8001431E004211CE04FF40031D8
:101360002BE000BF0221C2F8001427E04FF48041B7
:1013700011E000BF4FF480010DE000BF02F588636B
:101380004FF400319C4508BF4FF40051C2F80014DF
:1013900014E000BF40211160C16AA9B1BDE810404E
:1013A000084700BF022108E04FF4005105E000BFEC
:1013B0004FF4001101E000BF20211160816A00227A
:1013C000002980F82020E9D110BD0000002804BFCA
:1013D000012070472DE9F04140F2000CC4F2020CEC
:1013E00001684FF6F8320CF58163CBF6FD72994235
:1013F00038BF02F580624CF6CD430A44CCF6CC43AC
:10140000A2FB03236FF003040CF5806204EA93034C
:10141000D0E9017ED0F80C803CBF0022C4F2020269
:10142000C0E90F230A6843F6F0739A4300F11006EF
:101430003A4378CE42EA0E0242EA08021A432243B5
:101440002A4332430A6000214FF480728163028490
:10145000BDE8F0410846704790F820C0BCF1010F8C
:1014600004BF02207047F0B590F821C04FF0010E84
:10147000BCF1010F80F820E026D14FF0020C80F87B
:1014800021C04FF0000CC0F838C0D0E900C4C56AD4
:10149000C66BDCF80070102C27F00107CCF8007048
:1014A000006C0EFA00F070600846CCF8043004BFFF
:1014B00010460A46CCF80800CCF80C20DCF80000F6
:1014C00045B140F00E000DE0002180F82010022010
:1014D000F0BD00BF20F00400CCF80000DCF80000F4
:1014E00040F00A00CCF80000DCF8000040F00100F9
:1014F000CCF800000020F0BDB0B5044600F024F99F
:10150000054640F21C00C2F200000078611C18BFC2
:10151000044400BF00F018F9401BA042FAD3B0BD4C
:1015200040F298110828C2F2000105D0102818BF17
:10153000704701F10C0000E0081D0168B1FA81F16B
:10154000490901607047000040F21441C4F20101F2
:101550000A68024214BF08607047FFF7E1BF00004D
:101560002DE9F04F82B00E68002E00F0E980A0F166
:10157000804241F6004540F20043A2F58432C4F2B5
:1015800001050624C4F201034FEAB227A84208BFAE
:1015900005244FF0000E4FF001080F254FF0000A10
:1015A0004FF0000B052F38BF4FEAB224009408E03B
:1015B0000E680AF1010A36FA0AF20EF1040E00F082
:1015C000BF8008FA0AFC16EA0C09F1D04E684FF603
:1015D000FF72C1F21002964212DC122E56D8DFE8DA
:1015E00006F0350B4D4955555555555555555555DD
:1015F00055555545510000BFD1F80CB046E000BF2D
:101600004FF6FF72C1F2210296420FDC0022C1F2B6
:10161000110296421AD00022C1F21202964215D04F
:101620000022C1F22102964210D02FE00022C1F226
:10163000220296420AD00022C1F23102964205D01F
:101640000022C1F23202964220D100BF8A684AB11C
:10165000012A14BFC0F814C0C0F810C04FF0080B26
:1016600014E000BF4FF0040B10E000BFCA6802F1A5
:10167000040B0BE04FF0000B08E000BFCA6802F15A
:10168000080B03E0CA6802F10C0B00BF0246744667
:10169000B9F5807F24BF0432203C166805FA04F7B0
:1016A00026EA07070BFA04F637431760CA79D20611
:1016B0007FF57EAF41F21807C4F202073A684FF691
:1016C000084542F001023A603A68CFF6FF7502F031
:1016D00001020192019A2AF003021A440F24575979
:1016E0000EF00C06B440A743009C04FA06F63743FC
:1016F00057514E680F25F2031A6854BF22EA0902B7
:1017000042EA09021A605A68B70354BF22EA090282
:1017100042EA09025A60F7029A6854BF22EA0902B3
:1017200042EA0902B70240F20C479A60C4F201078C
:101730003A6854BF22EA090242EA09023A6037E7EE
:1017400002B0BDE8F08F000042F6C030C2F20000E7
:1017500000687047002804BF01207047F0B581B0D1
:10176000044690F83D0028B9002084F83C0020464B
:1017700000F0AEFA242084F83D002068016821F0D2
:1017800001010160016841F400410160016821F438
:101790000041016001F0B6FB636848F2A16CC0F241
:1017A000010C40F60011C0F23D0163453CBF48F218
:1017B0008041C0F21E01884202D2012001B0F0BD7A
:1017C0004DF68361C4F21B31A0FB01122168970C16
:1017D000D1F804E04FF496762EF03F0545EA9245A5
:1017E0004D60774348F638160D6AC0F24106A7FBF4
:1017F000067625F03F07634538BF960C721C3A43C6
:101800000A62CA6948F2A0664CF6FF77C0F2010688
:10181000B34222EA07020BD801385B00B0FBF3F0B9
:1018200001306FF31F30042898BF04201BE000BF75
:10183000A768013857B119277B43B0FBF3F001309B
:101840006FF31F3070B100F5804007E003EB4303F6
:10185000B0FBF3F001306FF31F3018B100F500401A
:1018600001E000BF01201043C8610868D4E90723E4
:1018700020F0C000104318430860886848F2FF3227
:1018800004F10C0790438CCF18431043A66988607D
:10189000C86820F0FF0038433043C860086840F053
:1018A0000100086000202021206484F83D1020639E
:1018B00084F83E0001B0F0BD2DE9F04381B01F4631
:1018C000164688460446FFF73FFF94F83D1020294E
:1018D0001ED1054621688869800715D5FFF734FFBA
:1018E000401B1928F6D900202021206384F83D10E0
:1018F00084F83E00216C41F02001216484F83C0012
:10190000022001B0BDE8F08394F83C00012803D127
:10191000022001B0BDE8F083012084F83C00086893
:10192000C00703D1086840F001000860086820F48F
:1019300000600860212084F83D00102084F83E00FB
:101940000020206466626785608D20850020CFF6C8
:10195000FF70E062E06A10F5803F18BF012819D1DE
:10196000086840F4807008604869DDF82090C0077E
:1019700023D119F1010016D0B9F1000F00F07E80DB
:10198000FFF7E2FE401B48457AD821684869C00746
:10199000F6D012E00828E3D0206B1228E0D0E3E76D
:1019A0004869C00709D14869C00706D14869C0071E
:1019B00004BF48695FEAC070F2D02069B0F5804F7B
:1019C00002D1FE2039E000BF062000EAD810F03036
:1019D0000861486900072FD4486919F1010214D041
:1019E00040057DD4B9F1000F00F03681FFF7ACFE61
:1019F000401B484500F232812168486900071BD42A
:101A000048694005F2D56BE04869400568D44869EB
:101A1000000711D44869400562D4486900070BD417
:101A2000486940055CD44869000705D44869400509
:101A300056D448690007E7D5FF2000EA080008618E
:101A40004869800756D4486919F101024FEA4050AD
:101A50002CD0002844D4B9F1000F00F0FD80FFF72E
:101A600073FE401B484500F2F980216848698007F1
:101A700040D448694005F2D532E000BFFFF764FE6C
:101A800000202021206384F83D1084F83E00216C62
:101A900041F020012164216884F83C000868C005F9
:101AA00044BF4FF4007020640EE100BF002817D43B
:101AB000486980071ED44869400511D448698007E9
:101AC00018D4486940050BD44869800712D4486986
:101AD000400505D4486980070CD448694005E7D51E
:101AE000086840F4007008606FF48060486104206A
:101AF000B5E000BF002000904A6900928A69009218
:101B0000009A228D002A00F0998009F101080A4606
:101B100052F8143F1B0637D4B8F1000F18D0B9F1B2
:101B2000000F00F0AD8000BF1068400500F1B080EC
:101B3000FFF70AFE401B484500F2A78021680A46CD
:101B400052F8140F00064FF00000EDD51CE000BF66
:101B500013685B0500F19C8013681B0614D413689E
:101B60005B0500F1958013681B060DD413685B05B7
:101B700000F18E8013681B0606D413685B0500F124
:101B8000878013681B06E3D5676A3A4612F8013B63
:101B90000B616262628D013A6285268D0A46A6F16A
:101BA000010CA4F828C052F8143F5B070DD55FEA7A
:101BB0000C430AD07B78A6F1020C0B61BB1C63625C
:101BC000638D013B6385A4F828C013685B0731D49B
:101BD000B8F1000F16D0B9F1000F51D010684005D0
:101BE00056D4FFF7B1FD401B48454ED821680A4640
:101BF00052F8140F40074FF00000EFD5B4F828C09A
:101C000018E000BF13685B0542D413685B0711D46A
:101C100013685B053CD413685B070BD413685B0542
:101C200036D413685B0705D413685B0530D413689A
:101C30005B07E7D55FEA0C427FF469AF0A6842F4BC
:101C400000720A60202184F83D1084F83E0084F878
:101C50003C0001B0BDE8F083FFF776FD20200021B5
:101C60002022216384F83D2084F83E10226C10432A
:101C7000206484F83C10012001B0BDE8F08300BF6F
:101C80001068400504D4FFF75FFD202004E000BF8A
:101C90006FF480601060042000212022216384F80A
:101CA0003D2084F83E10226C1043206484F83C10E0
:101CB000206C042808D12068016841F4007101609B
:101CC000012001B0BDE8F083012001B0BDE8F08340
:101CD00010B586B0016845F60000C4F200008142EC
:101CE0004FF00001CDE90411CDE9021102D006B098
:101CF00010BD00BF41F21804C4F20204216800F5CF
:101D0000344041F008012160216801F0080101918F
:101D100001994FF440610291122103910321059131
:101D200002A9FFF71DFC606840F4800060606068F5
:101D300000F480000190019806B010BD40F21C0034
:101D400042F6C031C2F20000C2F2000100780A6817
:101D5000104408607047000080B542F20000C4F2F1
:101D60000200016841F010010160032000F08CF8CE
:101D7000002000F005F800F027F8002080BD0000EA
:101D800070B540F21C06C2F2000640F24001327803
:101D9000C2F200014FF47A730968B3FBF2F2044611
:101DA000B1FBF2F1084601F0D5FA0F2C4FF0010516
:101DB00008D838B94FF0FF3021460022002500F046
:101DC00037F87460284670BD82B041F21800C4F242
:101DD00002000168042241F001010160016801F084
:101DE000010101910199416841F0805141604068D1
:101DF00000F08050009000980420C4F201000168B7
:101E000062F31A61016002B070470000002848BF09
:101E1000704700F01F01012202FA01F11C2202EAC0
:101E2000D0004EF20012CEF2000281507047000046
:101E300010B54EF60C5CCEF2000CDCF80030C3F3AB
:101E4000022E8EF00704042C28BF0424BEF10303E5
:101E50004FF0FF3E0EFA04F438BF0023A14399402F
:101E60000EFA03F39A43114300F00F0200F16043AE
:101E70000901043A03F564436244002848BF02F1B3
:101E80000C03197010BD00004EF60C51CEF200018B
:101E90000A684FF6FF031A4060F30A2242F080609E
:101EA00040F0FD700860704780B501F0070C0CEB46
:101EB0008C0C00EBCC0C0CF1280C01EB810E09060C
:101EC00000EBCE0058BF00F5B47C5AB1ACF8083036
:101ED0001B0C01210A202CF8003000208CF80C107B
:101EE00080BD00BF002106202CF8003000208CF8B7
:101EF0000C1080BD7047000001EB8102D0F8E83281
:101F000000EBC200C26B184602F016BD01EB810265
:101F1000D0F8E83200EBC200D0F87C21184602F07D
:101F200071BD000010B54FFA81FC4FF4B47201F09E
:101F3000070EBCF1000F48BF282290F8A8420244C7
:101F40000EEB8E034FEAD11C02EBC301012C81F88A
:101F500001C002F833E004BF022010BD0268012373
:101F600080F8A8320446104603F07CFA002084F87A
:101F7000A80210BDB0B5426801F00F03934284BFC0
:101F80000120B0BD4AB24FF4B474002A48BF2824DF
:101F900001F0070E021990F8A8420EEB8E034FEAEB
:101FA000D11C02EBC301012C4FF0000481F801C0E9
:101FB0008C7002F833E004BF0220B0BD0268012338
:101FC00080F8A8320546104603F0DAFA204685F874
:101FD000A842B0BD01F0070101EB810100EBC10097
:101FE000D0F884017047000010B54FFA81FCBCF1B5
:101FF000000F01F0070C0CEB8C010DD400EBC10EAF
:1020000000240EF5B4718EF869418EF868C1CEF8DF
:1020100078218EF86B3109E000EBC10101F828CF7F
:1020200001244C700A61CB70A1F80EC0022B04BFD2
:1020300000220A7190F8A822012A04BF022010BDD4
:102040000268012380F8A8320446104603F0D6F84F
:10205000002084F8A80210BD10B501F0070C0CEBAD
:102060008C0100EBC10E00680EF5B4710024CEF8AF
:102070007C21CEF88031CEF884418EF869418EF80B
:1020800068C103F0D1FA002010BD0000B0B542686D
:1020900001F0070494424FF001022BD84BB24FF4E9
:1020A000B475002B48BF28254FEAD11C48BF2146F4
:1020B000054401EB810305EBC30181F801C090F8F1
:1020C000A8C28A70BCF1010F05F8334004BF02209A
:1020D000B0BD02680123054680F8A832104603F01F
:1020E00089FA24B9286805F52C7103F047FA002213
:1020F00085F8A8221046B0BD80B501F0070C0CEBA6
:102100008C0100EBC10101F828CF00684FF0010CF1
:1021100001F1140781F824C04FF0000E87E80C404D
:102120000B6281F801C003F07FFA002080BD00003F
:102130002DE9F04F83B00446006803F039FF0146F3
:102140002068090405D5B0F94410B1F1FF3F40F310
:10215000D78003F02DFF400519D52068B0F8441052
:1021600021F48061A0F84410204600F005FD94F8A9
:10217000A80201280BD00120002584F8A80284F8C9
:1021800024502068002103F073FF84F8A8522068CF
:1021900003F00EFF01462068490405D5B0F844104D
:1021A00021F48041A0F8441003F002FF01462068AA
:1021B000890405D5B0F8441021F40051A0F844106A
:1021C00003F0F6FE01462068C90411D403F0F0FEC6
:1021D000000527D4206803F0EBFE800576D4206844
:1021E00003F0E6FEC00500F1818003B0BDE8F08F8A
:1021F000B0F8401021F00401A0F84010B0F84010F1
:1022000021F00801A0F84010204600F0C7FC20682B
:10221000B0F8441021F48051A0F8441003F0C8FE37
:102220000005D7D52068B0F800C0B0F804E0B0F8D9
:1022300008808789068A858A018B828BB0F84030B6
:1022400043F00103A0F84030B0F8403023F0010320
:10225000A0F84030B0F844305B050CD4B0F84430FE
:102260005B055CBFB0F844305FEA435303D4B0F879
:1022700044305B05EED5B0F8443023F48063A0F819
:102280004430A0F800C0A0F804E0A0F808808781DE
:102290000682858201838283B0F8401041F00801F4
:1022A000A0F84010B0F8441021F40061A0F84410E8
:1022B000B0F8401041F00401A0F84010204600F0B2
:1022C000ADFC206803F074FE800588D52068B0F866
:1022D000441021F40071A0F84410204600F062FC84
:1022E000206803F065FEC0057FF57FAF2068B0F879
:1022F000441021F48071A0F8441003B0BDE8F08FC1
:1023000004F5B471029104F1280504F52C7140F62E
:102310000F7801910AE000BF2046FFF7EDFD00BFF6
:102320002068B0F9441000297FF513AFB0F84420BD
:1023300012F00F090CD030F929104FEA490BB1F116
:10234000FF3F1FFA81FA33DD5FEA0A60E8D55FE1FB
:102350000188D20668D401EA080101F50041018034
:10236000B0F8501094F8282000EB410000EB021068
:10237000B0F80404E16B6FF39F2060640844E063ED
:1023800020460021FFF7B8FD94F824000028C7D0AC
:10239000206C0028C4D194F82400216840F080000B
:1023A000C0B2A1F84C00002084F82400B8E700BFB8
:1023B00030F81B1001EA0801803120F81B10029A46
:1023C00009EB890102EBC106317B002900F08E8008
:1023D000F178022940F09A80B0F850303178B26933
:1023E00000EB43035FEA4A4703EB011300F1A880C7
:1023F000B3F80C7400236FF39F27D21B38BF1A4623
:10240000B26140F2B3805FEA4A6200F1BF8030F807
:10241000212048F2C00302EA08021A4320F82120D2
:10242000002F40F0B480D5E00A0541D409B2B1F1E3
:10243000FF3F3FF775AF018801EA08018031018055
:10244000B0F8501094F8682100EB410101EB021143
:10245000B1F80C346FF39F23C4F8843193B1D4F8EE
:102460007C1179B1B4F86E2103F0A6FDD4F87C019B
:10247000D4F884110844C4F87C0120460021FFF7F9
:1024800045FD2068018809053FF54AAFB0F85010B6
:10249000D4F8783100F20C42002B00F0AF813E2BD3
:1024A00000F2E48103F0010707EB53039B02EAE12A
:1024B000B0F8501094F8682100EB410101EB0211D3
:1024C000B1F80C34B4F86E2101996FF39F23C4F86E
:1024D000843103F071FD2068018801EA0801803130
:1024E0000180204600F078FB1AE700BFB0F85010DA
:1024F000327800EB410101EB0211B1F80C746FF37B
:102500009F27002F66D07169F2885EE0317848F22B
:10251000C00330F8212002EA08021A4320F82120E3
:1025200030F82120B0F8503000EB0111520401EBDB
:10253000430115D4B1F80C746FF39F273FBB49E0FA
:10254000B3F8047400236FF39F27D21B38BF1A46D9
:10255000B2611FD95FEA4A622BD4A7BB3AE000BF41
:10256000B1F804746FF39F276FBB33E030F821207C
:1025700043F60F731A404CF28003A3F500535A4000
:1025800020F821205FEA4A627FF541AF17B37169F5
:1025900072891AE030F8212043F60F731A404CF28A
:1025A0008003A3F500535A4020F821205FEA4A62D5
:1025B000D3D530F8212048F2C00302EA08021A43BA
:1025C00020F8212037B1716932893B4603F0F4FCD1
:1025D00001E000BF0027F169D6E90502394438441B
:1025E000F161706112B13069B84209D93178204681
:1025F000FFF78CFC5FEA0A607FF592AE08E000BF4F
:102600002068314603F010F85FEA0A607FF588AE73
:10261000206809EB890130F81B2005EBC10602EAAE
:10262000080101F5004120F81B10F178002918BFBE
:1026300003291DD1B0F85020317800EB420202EBA3
:102640000112B2F80424B3696FF39F229B1A4FF072
:10265000000738BF3B46B3617FF65EAE7169F36930
:10266000114471619918F161314602F0DDFF57E6BE
:10267000022902D15FEACA51DCD5B0F85030317876
:10268000A946B5695FEA4A6200EB01173AD407F23E
:102690000C4E3EF8133000226FF39F23ED1A38BF23
:1026A0001546B56162D95FEA4A4708D430F821700F
:1026B0004CF2800507EA08072F4320F8217096F8AE
:1026C00024104D46012940F06E81D6E904C1D6E9B7
:1026D000075719441D4467457161F56180F0E0803A
:1026E000002F00F01581BC46326286F824207378F2
:1026F0004D46012B40F0DC80B0F850302EF803C07E
:1027000038E100BF07F2044B3BF8133000226FF3AF
:102710009F23ED1A38BF1546B5614BD95FEA4A478A
:1027200008D530F821704CF2800507EA08072F43DE
:1027300020F8217096F824104D46012940F033818D
:10274000D6E90471D6E9075E19441D44BE4571619E
:10275000F56180F0BD804FF0000CBEF1000F86F8EF
:1027600024C040F0B8809E46B7E000BF73784D4665
:10277000012B4FD0002B56D1B0F850303B44B3F86A
:10278000047427F4F847A3F80474B3F8047447F406
:102790000047A3F80474B0F850003EF8003023F46A
:1027A000F8432EF800303EF8003043F400432EF892
:1027B000003038E073784D46012B3BD0002B42D1DE
:1027C000B0F850303BF8035025F4F8452BF803508F
:1027D0003BF8035045F400452BF80350B0F8500087
:1027E0004D463844B0F80C2422F4F842A0F80C24EA
:1027F000B0F80C2442F4004223E000BF8B5A48F2A8
:10280000000723F4F8438B528B5ACFF6FF773B43F4
:1028100039E000BFB0F850303B44A3F80424B0F8CE
:1028200050002EF800202046FFF766FB5FEA4A4082
:1028300010D5B8E0B0F850302BF80320B0F85000B5
:102840003844A0F80C242046FFF756FB5FEA4A40C4
:1028500040F1A980206831784CF2800330F82120C3
:1028600002EA08021A4320F821209CE05F09DE06F4
:102870004FF0FF3608BF06EB531748F20003CFF6C0
:10288000FF7343EA87238B52018843F60F7211408E
:102890004CF28002A2F580525140018040E500BF19
:1028A000A7EB0C03336273784D46012B3FF424AF42
:1028B000002B5FD1B0F85030BCF1000F32D0BCF12A
:1028C0003E0F47D80CF0010707EB5C07BF024FE053
:1028D000AEEB070CBE46C6F820C073784D46012B00
:1028E00010D0002B5AD1B0F85030BEF1000F25D0D7
:1028F000BEF13E0F42D80EF0010707EB5E07BF02A4
:102900004AE000BFB0F850302BF803E046E000BFCB
:10291000002786F824709C4673784D46012BC7D15A
:10292000EAE600BF3EF8037027F4F8472EF803707C
:102930003EF8037047F400471AE000BF3BF803700D
:1029400027F4F8472BF803703BF8037047F400476F
:1029500022E000BF4FEA5C174FF0FF325FEACC6520
:1029600008BF02EB5C174FF4004242EA87274D464E
:102970002EF8037072891FFA8CF312E04FEA5E178B
:102980004FF0FF325FEACE6508BF02EB5E174FF4EF
:10299000004242EA87274D462BF8037032891FFA1E
:1029A0008EF303F06DFB2068317840F63F7330F80A
:1029B00021201A4048F2C003103B5A4020F8212041
:1029C000AEE40000002804BF012070472DE9F0416B
:1029D00086B0804690F8A90228B9002088F8A8029D
:1029E000404600F0A7F8032088F8A902D8F80000B4
:1029F00002F0BAFD08F1140E98E82F009EE810507E
:102A0000D8F82070CDE90054CDE902CE049702F049
:102A100027FD002879D1D8F800000021002503F017
:102A200025FBD8F8041000295DD008F128004FF0EC
:102A3000010C0022002300BF02EB820200EBC20760
:102A400000F83230DAB20133FA81DAB2914287F813
:102A500001C0FD70C7E90455BD61EDD808F5B4703B
:102A600000220025002300BF05EB850743F0010588
:102A7000ECB200EBC706A142727000F83730F2707A
:102A8000C6E90422B2612ED904EB840700F837505E
:102A900043F00205ECB200EBC706A1427270F2707F
:102AA000C6E90422B2611ED904EB840700F837504E
:102AB00043F00305ECB200EBC706A1427270F2705E
:102AC000C6E90422B2610ED904EB8407043300F88E
:102AD0003750DDB200EBC706A9427270F270C6E94A
:102AE0000422B261C0D808F10807D8F800008CCFE2
:102AF000D8E90565D8E9074CCDE90076CDE902545F
:102B0000CDF810C002F022FD30B1022088F8A902F1
:102B1000012006B0BDE8F081002088F824000120E3
:102B200088F8A902D8F8000002F00EFD002006B0D7
:102B3000BDE8F081006845F60041C4F2000188421A
:102B400018BF704780B582B041F21C00C4F2020089
:102B50000168002241F4000101600068002100F4D6
:102B60000000019001981420FFF762F9142002B0D0
:102B7000BDE88040FFF74AB910B5044680680228D6
:102B800018BFFEF71BFAD4F8E802012102F03EF864
:102B9000D4F8E802BDE8104001F0F6BFD0F8E80232
:102BA00002F01CB8D0F8E80202F022B890F8A8228F
:102BB000012A04BF0220704710B5012280F8A82224
:102BC00080F8241002680446104603F051FA0020F1
:102BD00084F8A80210BD0000D0F8E82200F52C719E
:102BE000104602F029B8000090F8A812012904BF8D
:102BF0000220704710B50168012280F8A82204461F
:102C0000084603F0C5F920460121FFF773F9206853
:102C100002F098FC002084F8A80210BD10B504460C
:102C2000D0F8E80202F05AF8A069002808BF10BDE9
:102C30004EF61050CEF20000016841F0060101602E
:102C400010BD00002DE9F04182B00446007841F249
:102C50001C06C007C4F202064AD030685FEAC0080A
:102C600008D4306840F080503060306800F0805008
:102C70000190019847F20007C4F200073868C005C8
:102C800012D4386840F480703860FEF75DFD054668
:102C90003868C00508D4FEF757FD401B6428F7D9F3
:102CA000032002B0BDE8F081706810F4407012D0CB
:102CB000616801F4407188420DD0706840F2404272
:102CC000C4F24222012320F4407113600023C007A4
:102CD0001360716026D17068616820F44070084309
:102CE000B8F1000F706003D4306820F0805030607D
:102CF0002068810707D556F8181CA26821F44041C6
:102D0000114346F8181CC00607D556F8180C61691F
:102D100020F48000084346F8180C002002B0BDE8FB
:102D2000F08100BFFEF710FD054641F2883700BF75
:102D300070688007CFD4FEF707FD401BB8424FF004
:102D40000300F5D9EAE70000002804BF012070471E
:102D50002DE9F04381B042F20008C4F202080446B3
:102D6000D8F800000D4600F0070081420CD9D8F8D1
:102D7000000020F007002843C8F80000D8F8000041
:102D800000F00700A8426CD1206841F204098107D5
:102D9000C4F2020917D5410705D5D9F8001041F44E
:102DA000E061C9F80010010705D5D9F8001041F419
:102DB0006051C9F80010D9F80010A26821F0F001A4
:102DC0001143C9F80010C00742D1D8F8000000F044
:102DD000070085420CD2D8F8000020F007002843F5
:102DE000C8F80000D8F8000000F00700A84238D169
:102DF0002068410707D5D9F80010E26821F4E061A6
:102E00001143C9F80010000708D5D9F8000021695E
:102E100020F4605040EAC100C9F80000D9F8002051
:102E200002F00C00082841F20020C0F27A004DD1D7
:102E300047F28E13C2F38341C0F60003595CD203FC
:102E400038D440F60010C0F23D0048433EE000BFD9
:102E5000606859F8041C022808D0012826D189038B
:102E600006D4012001B0BDE8F08300BF8901F8D588
:102E7000D9F8001021F003010843C9F80000FEF75B
:102E800063FC064641F28837D9F80000616800F01B
:102E90000C00B0EB810F98D0FEF756FC801BB842B7
:102EA000F2D9032001B0BDE8F08300BF8907D8D56F
:102EB000DEE700BFD9F8002047F27413C2F34042A6
:102EC000C0F600039A5C4843B0FBF2F0D9F800105A
:102ED00047F27612C1F30311C0F60002515C40F2D2
:102EE000400220FA01F140F22000C2F20000006826
:102EF000C2F200021160FEF743FF002001B0BDE8FE
:102F0000F083000040F2400041F20401C2F20000F0
:102F1000C4F202010068096847F28612C1F3022177
:102F2000C0F60002515CC8407047000040F240000B
:102F300041F20401C2F20000C4F202010068096813
:102F400047F28612C1F3C221C0F60002515CC840AC
:102F500070470000002804BF012070472DE9F041B0
:102F600082B00446007841F20006C007C4F20206AF
:102F70000CD0706800F00C00042840F081803068AC
:102F8000800303D56068002800F046812078800720
:102F90001BD5706810F00C0F09D0706800F00C00A1
:102FA000082840F087807068C00300F18380306893
:102FB000800703D52069012840F02E8130686169BF
:102FC00020F0F80040EAC10030602078000713D4F8
:102FD000207840072CD4E569002D00F01881706836
:102FE00000F00C00082840F0A780012D40F004817B
:102FF000012002B0BDE8F081A069002800F08480C3
:103000000020C4F242200121C0F88014FEF79CFB8E
:10301000054600BF706A800700F1B280FEF794FB9E
:10302000401B0228F6D9032002B0BDE8F08100BFA2
:10303000F0695FEAC00808D4F06940F08050F061A0
:10304000F06900F080500090009847F20007C4F249
:1030500000073868C00549D4386840F4807038608B
:10306000FEF772FB054600BF3868C0053ED4FEF788
:103070006BFB401B6428F7D9032002B0BDE8F08148
:10308000706800F00C00082803D17068C0033FF599
:1030900076AF61683068002900F00C81B1F5A02F8F
:1030A00000F00081B1F5803F40F01A8140F480309B
:1030B0001CE100BF2069002840F20000C4F2422059
:1030C00000F0888001210160FEF73EFB054600BF4D
:1030D000306880073FF572AFFEF736FB401B0228D1
:1030E000F6D9032002B0BDE8F08100BFE168306A84
:1030F000002900F09D80052900F09280012940F010
:10310000AF8040F00100B1E00020C4F24220002175
:10311000C0F88014FEF718FB054600BF706A8007F0
:103120007FF556AFFEF710FB401B0228F6D90320AF
:1031300002B0BDE8F08100BF0027C4F242270020A2
:103140003866FEF701FB022D05460DD1306880017F
:1031500040F1DE80FEF7F8FA401B02284FF0030032
:10316000F4D902B0BDE8F081306880014FD5FEF798
:10317000EBFA401B02284FF00300F5D9F1E700BF3E
:1031800040F24000C2F20000006844F6D351C1F2A0
:103190006201A0FB0101480A019000BF00BF019835
:1031A000411E002801913FF413AF00BF0198411E5A
:1031B000002801913FF40CAF00BF0198411E002888
:1031C00001913FF405AF00BF0198411E0028019115
:1031D000E4D1FDE600210160FEF7B6FA054600BF26
:1031E000306880077FF5F1AEFEF7AEFA401B02288B
:1031F0004FF00300F4D9B4E77068216A00F480321C
:103200008A4209D1616A00F47010884204D100201A
:1032100002B0BDE8F08100BF012002B0BDE8F0813E
:1032200040F004003062306A40F001001EE000BF50
:1032300020F001003062306A20F004003062FEF7B6
:1032400083FA054641F28837306A800720D5FEF7B9
:103250007BFA401BB8424FF00300F5D981E700BF6D
:1032600020F001003062306A20F004003062FEF786
:103270006BFA054641F28837306A800708D4FEF7BA
:1032800063FA401BB842F7D9032002B0BDE8F081D1
:10329000B8F1000F3FF59FAEF06920F08050F0616B
:1032A00099E600BF40F480203060306840F4803000
:1032B0001CE000BF20F480303060306820F48020B3
:1032C0003060FEF741FA0546306880037FF55EAE58
:1032D000FEF73AFA401B64284FF00300F4D940E7A8
:1032E00020F480303060306820F480203060FEF7B9
:1032F0002BFA0546306880033FF548AEFEF724FA06
:10330000401B6428F6D9032002B0BDE8F08100BF5D
:10331000206AB0F5803F05D17168A26821F40031C0
:10332000114371607168626A21F47411114308439A
:10333000706001203866FEF707FA044630688001A5
:103340003FF565AFFEF700FA001B02284FF00300BF
:10335000F4D906E7411E0020B0EB116F1CBF01201D
:1033600070474EF21002CEF2000251604EF6235129
:10337000CEF20001F0230B700721906011607047BE
:103380007047000010B501680446486994F83D2074
:10339000212A12D110F080000FD0486920F080005F
:1033A0004861606B10B1FDF70BFE2168C86820F022
:1033B000C000C860202084F83D00486994F83E2091
:1033C000222A1FD110F040001CD0486920F0400094
:1033D0004861A06B10B1FDF7F3FD2168C86820F4C7
:1033E0009070C860486920F001004861206B012896
:1033F00003D1C86820F01000C860202084F83E0087
:1034000000202063002010BD70470000B0B582B0DE
:1034100005682968EC686A6901F02F03202B04F025
:10342000200305D123B102B0BDE8B04000F056BE84
:103430005FEA017C1EBF02F0010E04F4907212EBF1
:103440000E0241D1026BCB0618D5012A16D114F019
:10345000100213D00021019129680191696801913E
:1034600001996969490649D4818DC38DC28D002AAD
:1034700018BF994240F0DE8002B0B0BD0A062BD5DD
:1034800014F0800228D090F83D102129F4D18168F1
:10349000B1F5805F03D10169002900F0E980016A7C
:1034A0004A1C026209786960C18C01390A04C1842E
:1034B000E2D1E86820F08000E860E86840F0400071
:1034C000E86002B0B0BD00BFCA0718BF14F4807234
:1034D00044D14A0748D44EE04906CDD514F0400106
:1034E000CAD0E96821F04001E960202180F83D1050
:1034F00002B0BDE8B04000F0FDB900BF816B0A68C2
:10350000526894B2002CB7D0838D9C42B4D2C2854D
:103510008A69202A1AD0EA68044622F48072EA6096
:103520006A6922F001026A616A6922F040026A61F6
:10353000202280F83E2000220263EA68084622F03A
:103540001002EA60FDF73CFDA38D2046C18D591A9B
:1035500089B202B0BDE8B040FFF712BF026C42F082
:10356000010202644A0706D5BEF1000F03D0026CC7
:1035700042F0020202648A0706D5BEF1000F03D0B2
:10358000026C42F004020264BCF1000F06D55EEA50
:10359000030203D0026C42F008020264026C002AAB
:1035A0003FF46AAF890605D523B1044600F096FDC5
:1035B000256820466969026C01F0400102F00802AA
:1035C00089182FD0E96821F49071E960696921F0C8
:1035D00001016961016B012903D1E96821F0100142
:1035E000E960202180F83E100021016369694906E5
:1035F00038D5696921F040016961816B91B344F26A
:103600000502C0F60002044608464A63FDF7FCFCCA
:1036100000283FF431AFA06B416B02B0BDE8B04071
:10362000084700BF0446FFF7EFFE0020206402B009
:10363000B0BD00BFEA68C91A22F49072EA606A69F4
:1036400089B222F001026A61202280F83E20002225
:103650000263EA6822F01002EA6002B0BDE8B040FE
:10366000FFF78EBE02B0BDE8B040FFF7CDBE00BF91
:10367000016A31F8022B6FF35F226A60016213E77F
:10368000002804BF0120704710B5044690F83D00A3
:1036900028B9002084F83C00204600F061F824207E
:1036A00084F83D002068D4E90212C36823F4005373
:1036B000C360036923F440531A430261D4E904232D
:1036C0001143C268194341F20C639A431143C1602C
:1036D0004169A26921F44071114343F60002C4F22A
:1036E00001029042416103D0FFF70CFC02E000BFF1
:1036F000FFF71CFCD4E90023192148439900B0FBD3
:10370000F1F048F21F5CC5F2EB1CA0FB0C314FF648
:103710009C734909C0F6FF7301FB0300322303EBDE
:103720000010A0FB0C03F02000EA531000EB011086
:10373000C3F34311084490601069202120F49040A5
:103740001061506920F02A005061D06840F40050A8
:10375000D0600020206484F83D1084F83E1010BD35
:10376000F0B585B040F600050446C4F201050068D6
:10377000A5F54441002788420497CDE902770197D7
:1037800002D005B0F0BD00BF41F21800C4F2020043
:10379000416801AE41F400314160416801F40031FB
:1037A00000910099016841F0040101600068314610
:1037B00000F0040000900098042001900220029084
:1037C000032004902846FDF7CBFE0820CDE9010731
:1037D000284631460397FDF7C3FE42F2A8356C2018
:1037E000C2F20005C4F2020080212022C5E90007D0
:1037F0002846C5E90271C5E90477C5E90627FDF742
:10380000E5FD002818BFFDF7D9FB26200021002286
:10381000A5636C62FEF70CFB2620FEF7F7FA05B0F5
:10382000F0BD000090F83E30202B1CBF02207047F6
:1038300070B582B096460A4600294FF0010118BFC4
:10384000BEF1000F04D102B0BDE8704008467047D9
:1038500090F83C10012905D1022102B0BDE870406A
:1038600008467047012180F83C10002122230163A3
:103870008262A0F82CE0016480F83E300368D0F842
:1038800038C044F27D04C0F6000444F2C90544F295
:103890001106C0F60005C0F60006CCF82840CCF8AA
:1038A0003410191D044660467346CCF82C50CCF8F1
:1038B0003060FDF7D1FD002101912068026801927E
:1038C00042680192019A84F83C10C26842F4807206
:1038D000C260426942F001024261426942F0400224
:1038E000426102B0BDE87040084670477047000072
:1038F0007047000070470000FEE7000040F296129B
:103900000146C2F200020020117000F045B900002B
:1039100080B5012000F040F90220BDE88040FDF7AD
:10392000EBBD000010B50C46402141EAC000C0B21A
:1039300000F032F9207800F0D1F9607800F0CEF98B
:10394000A07800F0CBF9E07800F0C8F9207900F019
:10395000C5F9607900F0C2F9A07900F0BFF9E0790B
:10396000BDE8104000F0BAB92DE9F04385B042F24D
:103970004045C2F2000528603220FDF7BDFD40F24F
:103980009618C2F2000898F800004FF0340949EA8E
:10399000C00128680DF113048DF8131064274E211F
:1039A000224601230097FDF787FF9DF8130022466A
:1039B00000F0FB0128688DF813104E2101230097B9
:1039C000FDF77AFF002603960398632818D800BFF6
:1039D0000398013003900398632811D803980130AD
:1039E0000390039863280BD8039801300390039841
:1039F000632805D803980130039003986428E7D31F
:103A00000520FDF779FD98F800000DF1130449EA4F
:103A1000C00128688DF813104E212246012300971B
:103A2000FDF74AFF9DF81300224600F0FB012868CD
:103A30008DF813104E2101230097FDF73DFF0396EB
:103A40000398632818D800BF0398013003900398A7
:103A5000632811D8039801300390039863280BD88A
:103A60000398013003900398632805D80398013028
:103A7000039003986428E7D30520FDF73DFD98F8EF
:103A80000000342141EAC00128680DF113048DF8CB
:103A9000131064274E21224601230097FDF70CFFE7
:103AA0009DF81300224600F0FB0128688DF81310E2
:103AB0004E2101230097FDF7FFFE00260396039891
:103AC000632817D80398013003900398632811D80E
:103AD000039801300390039863280BD803980130B2
:103AE00003900398632805D8039801300390039846
:103AF0006428E7D30520FDF7FFFC98F80000242197
:103B000041EAC00128680DF10B048DF80B104E211D
:103B1000224601230097FDF7CFFE9DF80B002246B9
:103B200000F0FB0128688DF80B104E21012300974F
:103B3000FDF7C2FE01960198632817D8019801305D
:103B400001900198632811D80198013001900198E3
:103B500063280BD80198013001900198632805D89B
:103B600001980130019001986428E7D30120FDF706
:103B7000C3FC282000F010F80C2000F00DF80620FF
:103B800000F00AF8012000F007F80220FDF7B4FC6D
:103B900005B0BDE8F08300002DE9F04385B040F2A8
:103BA0009616C2F200060446307804F0F00142F2A4
:103BB000404741EAC000C2F20007011D38680DF11C
:103BC0000B058DF80B104FF064084E212A46012397
:103BD000CDF80080FDF770FE9DF80B002A4600F03E
:103BE000FB0138688DF80B104E210123CDF80080C1
:103BF000FDF762FE4FF00009CDF8049001986328AC
:103C000018D800BF0198013001900198632811D89D
:103C1000019801300190019863280BD80198013078
:103C200001900198632805D801980130019001980E
:103C30006428E7D33078210141EAC000011D3868CB
:103C40000DF113068DF813104E2132460123CDF8E5
:103C500000800125FDF730FE9DF81300324600F08C
:103C6000FB0138688DF813104E210123CDF8008038
:103C7000FDF722FECDF80C900398632818D800BFFA
:103C80000398013003900398632811D803980130FA
:103C90000390039863280BD803980130039003988E
:103CA000632805D803980130039003986428E7D36C
:103CB000601EC0B2022838BF02252846FDF71CFC52
:103CC00005B0BDE8F083000003A2105C084440F09A
:103CD0008000C0B2FFF760BF004014542DE9F041EE
:103CE00086B040F29618C2F20008044698F8000028
:103CF00004F0F00142F2404741EAC000C2F200077E
:103D0000411D38680DF10F058DF80F1064264E2106
:103D10002A4601230096FDF7CFFD9DF80F002A46A5
:103D200000F0FB0138688DF80F104E21012300963A
:103D3000FDF7C2FD002502950298632818D800BF40
:103D40000298013002900298632811D8029801303D
:103D50000290029863280BD80298013002900298D2
:103D6000632805D802980130029002986428E7D3AE
:103D700098F80000210141EAC000411D38680DF1AA
:103D800017048DF817104E21224601230096FDF7E7
:103D900093FD9DF81700224600F0FB0138688DF86E
:103DA00017104E2101230096FDF786FD0495049817
:103DB000632817D80498013004900498632811D818
:103DC000049801300490049863280BD804980130BB
:103DD00004900498632805D804980130049004984E
:103DE0006428E7D30120FDF787FB06B0BDE8F0812A
:103DF0000178002908BF704710B5441EC8B2FFF70C
:103E00006DFFA17801340029F8D1BDE8104070475A
:103E100080B582B041F21400C4F2020001680022B1
:103E200041F0010101600068002100F001000190F3
:103E300001981020FDF7FCFF102002B0BDE8804083
:103E4000FDF7E4BFF0B585B00020CDE90300CDE972
:103E5000010041F21800C4F20200016840F60004BB
:103E600041F0400101600168002601F0400100912D
:103E700000990168C4F2010441F004010160016885
:103E800001AD01F00401009100990168C1F2210621
:103E900041F0080101600068012700F0080000906F
:103EA00000981820019004F5805029460296039747
:103EB000FDF756FB20462946CDE901760397FDF72D
:103EC0004FFB062000210022FDF7B2FF0620FDF780
:103ED0009DFF092000210022FDF7AAFF0920FDF720
:103EE00095FF0A2000210022FDF7A2FF0A20FDF71E
:103EF0008DFF05B0F0BD000080B542F2EC3045F614
:103F00000001C2F20000C4F2000148F2A0620023E6
:103F10004FF4804CC0F2010280E80E00C0E9033C7F
:103F2000C0E90533C0E90733FDF714FC002808BFDA
:103F300080BDBDE88040FDF741B8000080B542F289
:103F4000307044F20041C2F20000C4F200010023CC
:103F50004FF00C0C4FF4E13280E80E00C0E903335F
:103F6000C0E905C3C361FFF78BFB002808BF80BD14
:103F7000BDE88040FDF722B880B542F2E40040F28F
:103F80002401C2F20000C2F20001002200F098FCFD
:103F9000002818BFFDF712F842F2E40040F2440195
:103FA000C2F20000C2F2000100F0C0FE002818BFFB
:103FB000FDF704F842F2E40040F26811C2F200009A
:103FC000C2F2000100F004FA002818BFFCF7F6FF67
:103FD00042F2E400C2F2000000F0BEFE002808BF7A
:103FE00080BDBDE88040FCF7E9BF0000FEE70000AF
:103FF000704700007047000070470000FDF79EBE4C
:1040000070470000406A0021C185C184FFF7FCB9F8
:10401000406A01684A6990F83D30212B0BD112F0BB
:10402000800208D00022C284CA6822F0C002CA609E
:10403000202280F83D204A6990F83E30222B17D18B
:1040400012F0400214D00022C285CB6823F4907392
:10405000CB604B6923F001034B61036B012B03D150
:10406000CB6823F01003CB60202180F83E10026360
:10407000016C41F010010164FFF7C6B90168406AA4
:104080000968890618D40021C1850168CA6822F42C
:104090008072CA604A6922F001024A614A6922F0CC
:1040A00040024A61202280F83E20026B012A03D19F
:1040B000CA6822F01002CA60016B012918BFFFF71D
:1040C00015BC818DFFF75CB9406A016B012918BFEF
:1040D000FFF70EBC818D4908FFF752B990F83E10EA
:1040E000222918BF704783680246B3F5805F09D163
:1040F00052F8281F52F8183C002B41D003685B6827
:104100000AE000BF52F8281F13B90369002BF5D04D
:1041100003685B6803F07F030B7011680131116065
:10412000C18D01390A04C18500D070470168CA6891
:1041300022F02002CA60CA6822F48072CA604A690A
:1041400022F001024A61202280F83E20026B012AFF
:1041500018BFFFF7CBBB00220263CB6823F010032C
:10416000CB600B68DB0607D581B000920A6800922D
:1041700049680091009901B0818DFFF701B900BF36
:10418000026852686FF35F2221F8022B8162C7E751
:1041900042F23070C2F2000001680A68D20621D5EE
:1041A00080B582B0002201920A680192496840F20B
:1041B000981201910199816BC2F200020968496865
:1041C000C1F57A711180FFF7DDF8EFF3108072B658
:1041D00040F20800C2F200000121017062B602B094
:1041E000BDE8804042F23070C2F20000FFF70EB925
:1041F000D0F8B822002A04BF0220704710B501EBA6
:10420000810300EB830C5CF81C3F63B1D0F8C0E283
:1042100001EB81040EEBC404D4F838E0B3FBFEF4E8
:1042200004FB1E3323B10020C2F8140210BD00BFEE
:1042300000220023CCF8002000F05AFD002010BD21
:10424000B0B5D0F8B852044600F01AFCD4F8B81251
:10425000C5F80C0251B1D4F8BC0205F50371C2686F
:10426000D5F8040290470020B0BD00BF0220B0BDC9
:10427000B0B58121044600F04DFB00252046012108
:10428000E56200F047FB20468221C4F86C5100F043
:1042900041FBD4F8B802256448B1D4F8BC024068A8
:1042A0008047D4F8B80200F0A1FFC4F8B85200204B
:1042B000B0BD0000D0F8BC1281B110B5D0F8B84242
:1042C00094F80002FF2807D08B6894F80122214659
:1042D0009847FF2084F80002BDE810400020704796
:1042E000014640F204100A22C2F200000A80704720
:1042F000014640F27C004322C2F200000A8070476F
:10430000014640F2C0004322C2F200000A8070471A
:10431000014640F210104322C2F200000A807047AA
:10432000F0B581B00546007C4027002808BF4FF457
:1043300000772846812102223B46402400F0FEFB04
:1043400001262846012102223B46EE6200F0F6FBE0
:104350002846822103220823C5F86C6100F0EEFB99
:104360004FF407702E6400F043FFC5F8B802A8B1FF
:104370000746D5F8BC02006880470026C7F81462DB
:10438000C7F81862287CD7F80422002808BF4FF429
:10439000007428460121234600F0E4FB304601B0BA
:1043A000F0BD0000D0F8B812002904BF0220704709
:1043B00080B590F810C0D1F8042240230121BCF14F
:1043C000000F08BF4FF4007300F0CCFB002080BD4D
:1043D00000290EBF0220C0F8BC1200207047000068
:1043E000D0F8B8220020C2F804127047D0F8B832D2
:1043F0000020C3F80812C3F810227047F0B581B04E
:1044000091F90030D0F8B842002513F060028DF821
:104410000350ADF8005011D0202A3BD1CA88FAB120
:10442000B3F1FF3F3CDD497884F8012284F80012A3
:10443000214600F08BF8002001B0F0BD4A780B2A2D
:1044400024D00A2A16D02ABB90F89C22032A21D114
:104450006946022200F094F8002001B0F0BD00BFD0
:10446000D0F8BC020022836848789847002001B049
:10447000F0BD00BF90F89C22032A0BD10DF103017F
:10448000012200F07DF8002001B0F0BD90F89C22E0
:10449000032AD0D000F04EF8022001B0F0BD00BFDA
:1044A000D0F8BC3206469D684B780F461846214628
:1044B000A847FA883046214600F062F8002001B093
:1044C000F0BD0000D0F8B822002A04BF02207047D7
:1044D000D2F8141200294FF0010101D008467047AC
:1044E00080B5C2F81412D2F81012D2F80822016373
:1044F0008BB2812100F0FCFB0021BDE88040084622
:104500007047000080B5D0F8B42252689047002070
:1045100080BD000080B513460A46002100F022FB52
:10452000002080BD80B513460A46002100F0E0FB64
:10453000002080BD10B58021044600F0ABFB204672
:104540000021BDE8104000F0A5BB000080B5134677
:104550000A460321C0F894120021C0E9573300F045
:1045600001FB002080BD000080B50521C0F8941239
:1045700000210022002300F0F5FA002080BD000099
:1045800080B513460A460221C0F894120021C0E902
:10459000073300F0ADFB002080BD000080B5042192
:1045A000C0F8941200210022002300F0A1FB00209B
:1045B00080BD000010B540F21024C2F200040A468B
:1045C00002A0214600F012F9204610BD43444320CA
:1045D000436F6E666967000040F254101222C2F207
:1045E00000000A807047000010B540F21024C2F2AB
:1045F00000040A4602A0214600F0F8F8204610BD4B
:1046000043444320496E746572666163650000002F
:1046100040F278100422C2F200000A8070470000C5
:1046200010B540F21024C2F200040A4602A021464E
:1046300000F0DCF8204610BD53544D6963726F657D
:104640006C656374726F6E696373000010B540F23D
:104650001024C2F200040A4602A0214600F0C6F867
:10466000204610BD53544D33322056697274756123
:104670006C20436F6D506F72740000004FF2E87051
:10468000C1F6FF70026883684FF01A0C9B18A1F8FE
:1046900000C000F0A680B0B54FF0370C1A0F0CEB3D
:1046A00013714068B3F1204F38BF02F1300140F27E
:1046B0007C12C2F20002917019014FF0000E0CEB57
:1046C000117582F803E0C3F30364B1F1204F38BFE2
:1046D00004F13005190215710CEB117582F805E033
:1046E000C3F30354B1F1204F38BF04F1300519036F
:1046F00095710CEB117582F807E0C3F30344B1F137
:10470000204F38BF04F13005190415720CEB1175F8
:1047100082F809E0C3F30334B1F1204F38BF04F14C
:104720003005190595720CEB117582F80BE0C3F397
:104730000324B1F1204F38BF04F130051906157379
:10474000C3F303140CEB1175B1F1204F4FEA037161
:1047500003F00F0382F80DE038BF04F1300503F1D8
:104760003704957382F80FE0B1F1204F38BF03F1A1
:104770003004010F0CEB1073147482F811E0B0F1E7
:10478000204F38BF01F1300301010CEB1174937419
:1047900082F813E0C0F30363B1F1204F38BF03F197
:1047A000300401021475C0F303530CEB1174B1F122
:1047B000204F4FEA003182F815E038BF03F1300492
:1047C0000CEB1173947582F817E0C0F30340B1F15C
:1047D000204F38BF00F13003137682F819E0BDE8AE
:1047E000B04040F27C10C2F200007047002808BFC1
:1047F000704710B50378ABB100F1020E4FF0000C1A
:104800001EF8013C93B19EF800309BB19EF8013038
:10481000A3B19EF802300CF1040C002B0EF1040E33
:10482000EED10DE04FF0000C0AE000BF4CF0010C9F
:1048300006E000BF4CF0020C02E000BF4CF0030C9D
:104840005FFA8CFC022303EB4C03138003220B70F2
:104850004A7090F800E0BEF1000F2DD00230022225
:104860004FF0000CD3B2CC1801F803E084F801C07B
:1048700010F8013C03B3941CE4B201EB040E0B5599
:104880008EF801C00378BBB1141DE4B201EB040E35
:104890000B558EF801C0437873B1941DE4B201EB5F
:1048A000040E0B558EF801C090F802E00832BEF1FC
:1048B000000F00F10400D5D1BDE8104070470000A2
:1048C000002804BF02207047D0F8B432002B1CBF70
:1048D0000023C0F8B432002918BFC0F8B01280B568
:1048E000012180F89C12027000F0CEF8002080BDFB
:1048F00080B5D0F8C002FDF73DFB40F20022022354
:10490000C100C0F20122042838BF22FA01F3D8B254
:1049100080BD000080B5D0F8C002FDF703FB40F277
:1049200000220223C100C0F20122042838BF22FA6B
:1049300001F3D8B280BD0000B0B569B1D0F8B4229F
:1049400052693AB190F89C32032B03D19047002171
:104950000846B0BD0220B0BDD0F89412002918BF9F
:1049600004290FD18021044600F094F9204690F8E4
:10497000A01201294FF00001EAD180F8A0120846E8
:10498000B0BD00BF0229F2D1D0E908318B420FD966
:10499000591A8BB2016211461A460446FFF7C2FD4E
:1049A000204600210022002300F0DCF8DEE700BFF3
:1049B000C2698A4212D3B2FBF1F303FB112169B938
:1049C000D0F898128A4209D200210022044600251C
:1049D000FFF7A8FDC4F89852E2E700BFD0F8B41280
:1049E000C96831B190F89C22032A02D10446884755
:1049F00020468021044600F04DF92046FFF7B4FD23
:104A0000B4E7000010B559B1D0F8B42292692AB1C8
:104A100090F89C32032B01D190472EE0022010BD6C
:104A2000D0F894120024052912D0032926D1D0E908
:104A300058318B4214D95B1AC0F860318B4238BFB1
:104A400019468BB211461A46FFF764FD15E000BF08
:104A50000021C0F8944200F01DF9204610BD00BFAF
:104A6000D0F8B412096931B190F89C22032A02D11E
:104A7000044688472046FFF791FD0024204610BDDC
:104A8000D0F8C002FDF7A6BA10B5044642F2444081
:104A900045F60041C2F20000C4F2000108220223E0
:104AA00080E80E000021C0F8E842C4F8C002C0E966
:104AB00006110162FDF786FF002818BFFCF77EFA99
:104AC000D4F8C002002100221823FDF7EDF9D4F834
:104AD000C002802100225823FDF7E6F9D4F8C00275
:104AE00081210022C023FDF7DFF9D4F8C0020121A3
:104AF00000224FF48873FDF7D7F9D4F8C002822161
:104B000000224FF48073FDF7CFF9002010BD0000A4
:104B1000D0F8C00201F07F034AB203EB830301EB3C
:104B2000810100EBC30300EBC10000F5B570002A62
:104B300048BF03F12A0000787047000080B5944612
:104B4000D0F8C0021A466346FDF74EFA40F2002242
:104B50000223C100C0F20122042838BF22FA01F367
:104B6000D8B280BD80B5D0F8C002FDF775FA40F22A
:104B700000220223C100C0F20122042838BF22FA19
:104B800001F3D8B280BD0000F0B581B00021002251
:104B90004023044600254026FFF7D0FF012720468A
:104BA000802100224023C4F85871C4F86461FFF7E3
:104BB000C5FFD4F8B812A761666284F89C72C4F885
:104BC00094526560C4F8A45229B1D4F8B4122046B6
:104BD0004A6800219047002001B0F0BD90F89C1277
:104BE000042904BF90F89D1280F89C1200207047A1
:104BF00090F89C12032907D1D0F8B412C96919B1F1
:104C000080B58847BDE880400020704702460020FC
:104C10001174704780B5D0F8C002FDF7C7FF40F2AD
:104C200000220223C100C0F20122042838BF22FA68
:104C300001F3D8B280BD0000B0B500F52A74054676
:104C4000204600F067F895F8A8122846B5F8AE524D
:104C500001F01F020123022AC0E9A5350ED0012A66
:104C600006D08AB9214600F07DF80020B0BD00BF13
:104C7000214600F091FA0020B0BD00BF214600F0AF
:104C8000E7F90020B0BD00BF01F0800100F002F89C
:104C90000020B0BD80B5D0F8C002FDF7F7F940F2B2
:104CA00000220223C100C0F20122042838BF22FAE8
:104CB00001F3D8B280BD000080B5D0F8C002FDF786
:104CC00093FF40F200220223C100C0F20122042817
:104CD00038BF22FA01F3D8B280BD0000014690F837
:104CE0009C02042281F89D02002081F89C227047DA
:104CF00080B5D0F8C002FDF7FFF940F20022022390
:104D0000C100C0F20122042838BF22FA01F3D8B250
:104D100080BD00000A7802704A7842704A8842805A
:104D20008A888280C988C1807047000000290EBF30
:104D30000220C0F8B412002070470000D0F8B4225E
:104D4000002A04BF0220704780B5126890470028EF
:104D500018BF0120400080BD80B5FFF7ADFF0020E7
:104D600080BD000070B582B00A78C2F34112531EB4
:104D7000022B07D2D0F8B42292689047002002B0EC
:104D800070BD00BF002A40F057814A78092A00F21E
:104D90005381DFE812F00B00350051015B00510137
:104DA00067008B0051012500410000BF90F89C2254
:104DB000013A022A00F24081C988022940F03C8170
:104DC000D0F8A4120322002908BF0122014641F8AD
:104DD0000C2F0222FFF7D4FB002002B070BD00BFF1
:104DE000C988012940F0288190F89C124A1E022AA5
:104DF00080F074800022014641F8082F72E000BF65
:104E000090F89C22013A022A00F216814988012971
:104E1000B4D100211FE000BF4A8840F20C26D1B275
:104E2000C2F200060229327080F0068190F89C22BE
:104E3000032A5DD0022A40F08380002900F0C5805B
:104E400003220446416080F89C22B7E0498801298A
:104E50007FF494AF0121C0F8A412FFF79FFB00205C
:104E600002B070BD8A88002A40F0E680CA88002A15
:104E700040F0E2804D887F2D00F2DE8090F89C1299
:104E8000032900F0D980E9B280F89E520446FFF76A
:104E9000C1FE20462646FFF781FB002D0CBF0120F6
:104EA000022086F89C02002002B070BD4A884FF0B4
:104EB000FF3303EB12230026062BADF8066000F249
:104EC000BB80DFE803F0052D1FB9B94D590000BFC5
:104ED0000D46D0F8B0120A6891E000BF032940F0F7
:104EE000AB80011D0122FFF74BFB002002B070BD1B
:104EF000002951D04168012958D1FFF74FFB00200C
:104F000002B070BDD2B2052A00F29680DFE802F04E
:104F1000046E666A627200BFD0F8B02252686CE01C
:104F20000D46017C0446D0F8B40200290CBF816A0A
:104F3000C16A0DF1060088470146022029E000BF42
:104F400080210446FFF7A6FE20460021FFF7A2FEBF
:104F500031782046FFF7D6FA002002B070BD00BFBE
:104F6000027C002A68D10446D0F8B4020D46416B99
:104F70000DF10600884747E0027C002A5CD1044618
:104F8000D0F8B4020D46016B0DF1060088470146CA
:104F90000720487039E000BF022280F89C220022DE
:104FA00042600446FFF7AEFA0EE000BFC9B2054604
:104FB000FFF7A8FA31782C4669602846FFF7BEFE55
:104FC000022801D1204638E02046FFF7E7FA00200A
:104FD00002B070BDD0F8B02252690EE0D0F8B02215
:104FE000D2680AE0D0F8B022126906E0D0F8B02208
:104FF000926802E0D0F8B0229269EAB10D46044608
:10500000007C0DF1060190470146BDF8060048B14D
:10501000EA883AB1904238BF02462046ADF80620F1
:10502000FFF7AEFAE88800287FF4A8AE2046FFF725
:10503000B5FA002002B070BD04468021FFF72AFEB9
:1050400020460021FFF726FE002002B070BD0000C0
:10505000B0B50B784FF0FF3503F0600205EB521549
:10506000022D05D2D0F8B422926890470020B0BD3E
:10507000C3F34113DBBB202A06D1D0F8B4229268D7
:10508000BDE8B040104700BF4B780A4609792BB302
:10509000012B11D0032B2AD190F89C32032B0FD176
:1050A0005388C3BB11F07F0335D0D2889ABB044626
:1050B000FFF7F0FD2EE000BF90F89C32032B21D0CB
:1050C000022B14D14A0612D00446FFF7E3FD204616
:1050D0008021FFF7DFFD0020B0BD00BF90F89C22CB
:1050E000032A1DD0022A08BF5FEA416240D0802116
:1050F0000446FFF7CFFD20460021FFF7CBFD00203F
:10510000B0BD00BF5288002A44D14A0603D00446ED
:10511000FFF7EEFB2046FFF741FA0020B0BD00BFCD
:1051200001F00F0202EB8202802900EB82022CBF09
:105130009269D2F85821002AD9D001F07F0202EBFF
:10514000820200EB820202F1140401EB810200EB07
:105150008202802938BF02F5AA744A0614D0054697
:10516000FFF7D6FC01462846002918BF01210CE0B4
:1051700009064FF014024FF0000358BF4FF4AA7213
:105180008118835003E000BF0021216021460222E4
:10519000FFF7F6F90020B0BDB0B50A7802F0600262
:1051A000602A08D090F89C22013A022A03D88A8803
:1051B00012F0FE0F0AD080210446FFF76BFD204657
:1051C0000021FFF767FD0020B0BD00BFD0F8B4227A
:1051D000044692680D469047E988002908BF0028D8
:1051E000F1D12046FFF7DAF90020B0BD704700008A
:1051F00040F21040C2F2000070470000F0B50B789A
:10520000024691F803E030F8230047F27066BEF1E1
:10521000030F20EA060C11D80020DFE80EF0030788
:10522000100B00BF4CF4007C09E000BF4CF4806C14
:1052300005E000BF4CF4C06C01E000BF012048F263
:105240008004CFF6FF744CEA040622F8236032F89B
:10525000236040F60F752E401E43264322F823603C
:105260000E7B48F2800C002E4ED032F8234040F6E0
:105270000F652C40644404F5807422F82340B2F892
:1052800050400E8902EB03152C4426F00106A4F8C9
:105290000064B2F850404E892C4426F00105A4F871
:1052A00008544C7832F82310002C57D0490409D503
:1052B00032F8231040F60F742140614401F580411B
:1052C00022F8231032F82310490608D532F82310AB
:1052D00040F60F7421406144403122F8231032F827
:1052E000231040F63F7421400CF120044C40BEF1E5
:1052F000010F08BF41EA0C0422F8234032F82310C2
:1053000043F60F7751E000BF4E78B2F85040CF8897
:105310001D01002E27F001064ED051192144A1F89D
:10532000006432F82310490608D532F8231040F6FD
:105330000F7421406144403122F8231032F82310C9
:1053400040F63F74BEF1010F01EA04012ED00CF1CA
:105350002007794022F82310F0BD00BF490409D589
:1053600032F8231040F60F773940614401F580414F
:1053700022F8231032F82310490608D532F82310FA
:1053800040F60F7739406144403122F8231032F85B
:10539000231043F60F7739400CF54057794022F837
:1053A000231032F8231040F63F77394041EA0C01D0
:1053B00022F82310F0BD00BF15442F19A7F8086488
:1053C000B2F850E00C6905F20C416CB13E2C33D8B8
:1053D00004F0010505EB5404A40221F80E4032F854
:1053E0002310490413D41CE03EF8014048F20005A4
:1053F00024F4F8442EF801403EF80140CFF6FF7542
:105400002C4321F80E4032F82310490409D532F814
:10541000231040F60F773940614401F5804122F8AE
:10542000231032F8231043F60F7739400CF540571C
:10543000794022F82310F0BD65094FF0FF36E706EA
:1054400008BF06EB541548F20004CFF6FF7444EA97
:10545000852421F80E4032F823104904D7D4E0E720
:1054600000207047B0B50B7802460C7B487832F8C4
:1054700023104CF2800C002C4CF280043AD000280F
:1054800042D0480408D532F8230040F60F71084096
:1054900040EA0C0022F8230032F8230043F60F7E86
:1054A000400640F63F7009D532F8231040F60F75DC
:1054B00029406144A1F57F5122F8231032F82310CE
:1054C00040F60F7529402143ACF5804422F82310A3
:1054D00032F823100840204322F8230032F823003A
:1054E00000EA0E006044A0F58041002022F823105D
:1054F000B0BD00BFF0B1480640F63F7EEED5ACF53A
:105500007F5440F60F70E3E7480408D532F82300D3
:1055100040F60F71084040EA0C0022F8230032F8F0
:105520002300ACF57F54400640F63F7E43F60F70F3
:10553000BAD4C3E7480443F60F7ECFD540F60F70C8
:10554000C6E7000000207047002070470146012098
:10555000A1F8400000220020A1F84020A1F844203A
:10556000A1F85020704700000146B0F8400044F216
:10557000FF0202400020A1F8402070470020704741
:105580000A7B0AB10020704791F800C04A7830F8D1
:105590002C30BAB15A0648F2A0030CD580B530F8C9
:1055A0002CE040F60F7202EA0E021A44203220F874
:1055B0002C20BDE88040C9780129E3D040F63F7136
:1055C00010E000BF59044BF2800309D530F82C10CD
:1055D00040F60F721140194401F5805120F82C104B
:1055E00043F60F7130F82C201140594020F82C1050
:1055F0000020704702460B78487832F823C040F606
:105600003F71002848F2900008BF43F60F71CFF6B3
:10561000FF7008BF00F57F6001EA0C0141400020E7
:1056200022F82310704700002DE9F04F82B04F7828
:10563000012F5BD18A69D1F810800F7B424528BFCA
:105640004246002F74D0CF78022F40F0B1800D7801
:105650000C6A30F8257040F60F664FEA850E444517
:1056600006EA070648F2B00C40F20A8147F6507786
:10567000F61BD036A4EB020A20F82560C1F820A062
:1056800030F82560B0F850702D01760696B200EB28
:10569000050B00F163810BEB0704A4F804244B69AC
:1056A000002E00F0A5830D89013600EB450505F5B8
:1056B00080694FF0FF3505EB5604C6F34105002D18
:1056C0004FEA560700F056821E46CDE9004B1C46B5
:1056D00036F8023BCB46012D2BF8043B40F04E82BE
:1056E000D946DDF804B0013F23466EE30A7B002A69
:1056F00042D0CA78012A00F0A180022A40F0BC8082
:105700000A78002F40F0FE81B0F850700E6907440F
:105710001301002E07F2044700F0AE813F2E80F007
:10572000DD8106F0010505EB5606B602E3E100BF98
:10573000130400F06B81CB88D1F814E000EB430335
:1057400003F5806893B201334FF0FF37C3F3410490
:1057500007EB530C002C4FEA530300F044817746CB
:1057600037F8025B4646012C26F8045B40F02281A4
:10577000013BBE46B04636E18F690B69FA1A38BF65
:1057800000228A61B0F850600A7838BF3B4687191A
:105790001101002B07F20C4700F0C8803E2B00F2ED
:1057A000CF8003F0010606EB53039B027B52D5E149
:1057B0000E7840F60F6530F8267048F2B00C2F4096
:1057C00048F2B005CFF6FF752F43D03720F826708A
:1057D0000C6A3701A41A0C6230F82630B0F8505029
:1057E00000EB070B4FEA860E5B0696B25D4477D45A
:1057F000A5F80424D1F814A0002E00F0F3810D893F
:10580000013600EB450505F580694FF0FF3505EBE6
:105810005603C6F34105002D4FEA560700F0D68027
:105820005646CDE9003B36F8023BCB46012D2BF81E
:10583000043B40F0FB80013FD946C0E18A690B6917
:10584000D61A3CBF002613460A78002F8E6140F01E
:105850008581B0F8507011010744002B07F204470E
:1058600000F024813F2B80F0658103F0010606EBF8
:1058700053039B026BE100BF012002B0BDE8F08F33
:1058800047F65072B21A303A20F82520B0F850206E
:1058900000EB05131A442304A2F8044400F05683D5
:1058A0000A89496900EB420202F58063A2B2013223
:1058B0004FF0FF34C2F3410504EB5208002D4FEACC
:1058C000520200F0D0810E4636F8024B1F46012DE1
:1058D00027F8044B40F0B880013A31463B46C2E11C
:1058E000A5F80C24D1F814A0002E00F0EF814D890A
:1058F000013600EB450505F580694FF0FF3505EBF6
:105900005603C6F34105002D4FEA560760D05646B0
:10591000CDE9003B36F8023BCB46012D2BF8043B8A
:1059200040F09C80013FD946BDE100BFCB5B23F432
:10593000F843CB53CB5B43F40043CB530EE100BFA2
:105940005E094FF0FF35DC0608BF05EB53164FF438
:10595000004343EA86237B5200E100BF0BEB0705BF
:10596000A5F80C244B69002E00F096824D89013673
:1059700000EB450505F580694FF0FF3505EB560452
:10598000C6F34105002D4FEA560700F0F5801E468C
:10599000CDE9004B1C4636F8023BCB46012D2BF8D7
:1059A000043B40F0F780D946DDF804B0013F2346C0
:1059B0005FE200BFBEF80250022CA8F8045009D1E3
:1059C00008F108080EF1040E023B0CE05646F8E020
:1059D00056466AE1BEF804400EF1060EA8F80840EB
:1059E00008F10C08033BBCF1030F0FD3AEF108071D
:1059F000A8F1100637F8085F043B26F8105F7D8891
:105A0000B580BD883581FD88B581F3D1B0F85030BF
:105A10000978034403EB011348F2B00CA3F8042403
:105A20004FEA810E40F63F7192E200BFBAF80230B1
:105A3000022DA9F8043040F0B98009F108090AF1F3
:105A40000406023FBBE000BF4C88022D9C8040F062
:105A5000058108330431023A05E100BFBAF802308B
:105A6000022DA9F8043040F0158109F108090AF166
:105A70000406023F17E100BFDE5B26F4F846DE5362
:105A8000DE5B46F40046DE53B0F8507007443B44FA
:105A9000B3F80C7427F4F847A3F80C74B3F80C743B
:105AA00047F40047A3F80C742CE000BFCB5B23F451
:105AB000F843CB53CB5B43F40043CB53B0F85030A7
:105AC00003441944B1F80C3423F4F843A1F80C341E
:105AD000B1F80C3443F400433EE000BF75094FF0C9
